:020000022000DC
:10600000B826042001610200856A02009370020034
:10601000856A0200856A0200856A020000000000AD
:10602000000000000000000000000000856A02007F
:10603000856A020000000000856A0200856A02008D
:10604000856A0200856A0200856A0200856A02008C
:10605000856A0200856A0200856A0200856A02007C
:10606000856A0200856A0200856A0200856A02006C
:10607000856A0200856A0200856A0200856A02005C
:10608000856A0200856A0200856A0200856A02004C
:10609000856A0200856A0200856A0200856A02003C
:1060A000856A0200856A0200856A0200856A02002C
:1060B000856A0200856A02000000000000000000FE
:1060C000856A0200856A0200856A0200856A02000C
:1060D000856A0200856A0200856A0200856A0200FC
:1060E000856A0200856A0200856A020000000000DD
:1060F00000000000856A020000000000856A0200BE
:106100000024E443A64600F0BFFCA6460E480F4913
:106110000022814201D004C0FBE70D480D490E4A20
:10612000814202D008CA08C0FAE70C484FF4700157
:10613000026842EA01020260BFF34F8FBFF36F8F24
:1061400000B500F03CFC00DE0034002004340020E8
:106150000034002000340020E471020088ED00E0EB
:1061600080B56F4682B000F0E9FB0190FFE701982F
:1061700000F0010002B080BD80B56F4684B003908E
:1061800043F20040C2F200000078C00718B9FFE7F0
:1061900000F00DF807E0002007F8090CFFE717F8FA
:1061A000090C04B080BD012007F8090CF7E743F2A1
:1061B0000041C2F2000101200870704780B56F46AF
:1061C0008CB00390FFE740F21050C5F2000006903B
:1061D00009900A9000F059FC0590059808900790E6
:1061E00007980290FFE702A80B90FFE702A804902F
:1061F00002980090FFE7009800F01001012080EA6B
:10620000111007F8290C17F8290C0CB080BD80B5C7
:106210006F4684B00390FFF7D1FF0290FFE702982A
:1062200000F0010000F099FA0190FFE7019800F0FA
:10623000010004B080BD81B08DF8030080F0010042
:1062400001B0704780B56F468CB00290FFE740F216
:106250000C50C5F2000000900690002005900598B3
:10626000089007900798049004A80390039800F002
:106270000BF801460098096809900A910B9000F00C
:106280000EFCFFE70CB080BD88B001460091029182
:1062900003914FF400500490059106900860FFE7C9
:1062A00000980790FFE7009808B0704780B56F46E8
:1062B0008CB00290FFE740F20850C5F20000009059
:1062C0000690002005900598089007900798049084
:1062D00004A80390039800F00BF8014600980968A1
:1062E00009900A910B9000F0DAFBFFE70CB080BD3B
:1062F00088B001460091029103914FF40050049040
:10630000059106900860FFE700980790FFE7009866
:1063100008B0704780B56F468CB0FFE740F2107050
:10632000C5F20000019006900220059005980890A3
:1063300007900798049004A80390039800F00BF8C6
:1063400001460198096809900A910B9000F0A7FB9B
:10635000FFE70CB080BD80B56F46C6B00A900D90C7
:1063600018901E901D901D980B90FFE70B990F91B0
:10637000002007F8DD0C17F8DD0C279107F8750CE5
:1063800000F067FA0B99299107F86D0C29993F9154
:106390000968099100F04AFA02460998299944913E
:1063A00062F300000860FFE70A981B9020901F909E
:1063B0001F980890FFE708991191002007F8D50C65
:1063C00017F8D50C2B9107F8650C00F052FA0899D4
:1063D0002D9107F85D0C2D993E91096821F002017D
:1063E000079100F023FA0146079801F001022D9968
:1063F000439140EA42000860FFE70A98199026900E
:10640000259025980690FFE706991591032007F837
:10641000C50C17F8C50C379107F8350C00F00BFACE
:106420000699399107F82D0C39993B91096821F0AB
:106430000C01059100F017FB0146059801F00302DD
:106440003999409140EA82000860FFE70A981A9063
:106450002490239023980490FFE70499139100203F
:1064600007F8CD0C17F8CD0C2F9107F8550C00F05C
:1064700010FA0499319107F84D0C31993D91096852
:1064800021F4E061039100F0EEFA0146039801F077
:1064900007023199429140EA02200860FFE70A981A
:1064A0001C902290219021980290FFE70299179169
:1064B000002007F8BD0C17F8BD0C339107F8450C08
:1064C00000F0F5F90299359107F83D0C35993C91AA
:1064D000096821F44031019100F0C5FA01460198A4
:1064E00001F003023599419140EA02400860FFE75C
:1064F0000A984590FFE70A9846B080BD80B56F4680
:106500008EB007F82D0C17F82D1CC80710B1FFE747
:1065100004E0FEDE03A8FFF795FE0BE003A8FFF7FB
:10652000C5FEFFE747F2F400C0F2020000F042F9B6
:10653000FFE706E047F2F400C0F2020000F03AF98B
:10654000F7E740F23470C5F2000001900890022095
:10655000079007980A9009900998069006A8059058
:10656000059800F00BF80146019809680B900C9112
:106570000D9000F094FAFFE70EB080BD80B56F4635
:10658000C6B00A900D9018901E901D901D980B900B
:10659000FFE70B990F91012007F8DD0C17F8DD0CD0
:1065A000279107F8750C00F054F90B99299107F819
:1065B0006D0C29993F910968099100F037F902465D
:1065C00009982999449162F300000860FFE70A984E
:1065D0001B9020901F901F980890FFE70899119139
:1065E000012007F8D50C17F8D50C2B9107F8650C8E
:1065F00000F03FF908992D9107F85D0C2D993E9117
:10660000096821F00201079100F010F9014607988E
:1066100001F001022D99439140EA42000860FFE732
:106620000A9819902690259025980690FFE70699DC
:106630001591002007F8C50C17F8C50C379107F81D
:10664000350C00F0F8F80699399107F82D0C3999B6
:106650003B91096821F00C01059100F004FA014614
:10666000059801F003023999409140EA82000860E0
:10667000FFE70A981A902490239023980490FFE74C
:1066800004991391002007F8CD0C17F8CD0C2F9129
:1066900007F8550C00F0FDF80499319107F84D0CFE
:1066A00031993D91096821F4E061039100F0DBF933
:1066B0000146039801F007023199429140EA022015
:1066C0000860FFE70A981C90229021902198029080
:1066D000FFE702991791002007F8BD0C17F8BD0CD1
:1066E000339107F8450C00F0E2F80299359107F86C
:1066F0003D0C35993C91096821F44031019100F03D
:10670000B2F90146019801F003023599419140EA3E
:1067100002400860FFE70A984590FFE70A9846B0F4
:1067200080BD81B0009001B0704780B56F4684B0E5
:10673000019107F8050C17F8051CC80710B1FFE711
:1067400009E0FEDE019A47F20410C0F202002B219C
:1067500000F0C4F9FEDE04B080BD80B56F4684B0A1
:106760008DF80400012007F8090C10B9FFE70FE0CD
:10677000FEDE9DF8040007F8010C002107F8091C53
:1067800007F80A0C17F80A0CFFF755FD009006E011
:10679000FEDEFFE717F8090CC00750B905E00098C6
:1067A00000F0010007F80B0CF4E717F80B0C04B02D
:1067B00080BDFAE780B56F4686B00290012010B91F
:1067C000FFE702E0FEDE06B080BD02986946086081
:1067D00047F22F10C0F2020047F25C13C0F202032E
:1067E0002B2104AA00F0A7F9FEDE80B56F4684B025
:1067F000019107F8050C012010B9FFE706E0FEDE65
:1068000017F8050C07F8010C04B080BD0198694623
:10681000086047F22F10C0F2020047F25C13C0F28A
:1068200002032B2103AA00F086F9FEDE81B08DF869
:10683000030001B0704782B08DF805008DF80700A5
:106840008DF806009DF806000090FFE7009802B062
:10685000704782B08DF805008DF807008DF80600AE
:106860009DF806000090FFE7009800F0010002B0DC
:10687000704782B08DF805008DF807008DF806008E
:106880009DF806000090FFE7009800F0010002B0BC
:10689000704782B08DF805008DF807008DF806006E
:1068A0009DF806000090FFE7009802B0704782B0A4
:1068B0008DF805008DF807008DF806009DF806009C
:1068C0000090FFE7009802B0704784B000900191FB
:1068D0000078029009780391401AB0FA80F04009DC
:1068E00004B0704780B56F4684B000F0E5F801460B
:1068F00001910390FFE70198C00720B9FFE700204E
:1069000007F8050C03E0012007F8050CFFE717F86E
:10691000050C04B080BD80B56F4682B007F8010C4D
:1069200047F26C11C0F20201781EFFF7CEFF009013
:10693000FFE7009800F0010002B080BD80B56F460F
:1069400086B0FFF7CFFF0146029107F8020CFFE780
:1069500000F027F8FFE700F0B2F8FFE704A8039083
:106960000398FFF709FC0146019107F8010CFFE7C6
:10697000029800F00100FFF7CEFF0090FFE70098BB
:10698000C00728B9FFE7019800F0010006B080BDFC
:1069900000F001F8F7E780B56F4600F08BF8FFE7ED
:1069A00080BD80B56F4600F083F8FFE780BD80B5FD
:1069B0006F4682B00190FFE700F078F8FCE780B501
:1069C0006F4600F001F8FEDE80B56F4688B0FFF735
:1069D000C7FB0390FFE7039800F0010047F2801126
:1069E000C0F20201FFF7A1FEFFE700F048F8FFE761
:1069F000FFF790FCFFE7002007F8090C17F8090CD7
:106A0000FFF77CFDFFE704A8FFF701FC0290FFE71A
:106A1000029800F0010047F29011C0F20201FFF766
:106A2000E4FE0190FFE70198C00720B9FFE705A841
:106A3000FFF708FC0AE005A8FFF738FCFFE747F27C
:106A4000A010C0F20200FFF7B5FEDCE747F2B0107D
:106A5000C0F20200FFF7AEFED5E781B08DF803006B
:106A6000C0B201B0704780B56F4682B007F8010C24
:106A7000FFF7F3FF0090FFE7009802B080BD81B000
:106A800001B07047FFE7FEE7704783B001900068F0
:106A9000029002980090FFE7009803B0704782B020
:106AA000009001910160FFE702B0704700BE70479F
:106AB00072B6704762B67047EFF310807047704748
:106AC00082B000900191FEDE70474CF27C204CF2C7
:106AD0007341CFF69530CEF22651704780B56F46A0
:106AE00088B0944647F2C012C0F202020023CDE9FA
:106AF00006016846049201226146019206AA0593A6
:106B00000293009200F001F8FEDE80B56F4686B079
:106B1000CDE9030147F2C010C0F202000122029049
:106B200047F2C010C0F202008DF81420019001A8B5
:106B3000FFF73DFFFEDE80B56F468EB08DE80F009B
:106B40000AA90220089100210990CDE9050147F228
:106B5000D410C0F20200D7F808C0049047F27D00BC
:106B6000C0F202000D9002A80C9047F28700C0F21C
:106B7000020061460B9068460A9004A8FFF7C5FF23
:106B8000FEDEF0B503AF2DE9000F81B08846D0F8E6
:106B900008C001698146BCF1010F18BF01290AD163
:106BA000012977D1D9F8140008EB020E4FF0000B41
:106BB0004146461C0CE0D9E90601D6E040EA8115C1
:106BC000A11CABEB0400B5F5881F00EB010B61D0F5
:106BD000013E0C4628D074455CD0214611F9010BCA
:106BE000B0F1FF3FC5B2ECDC607805F01F01DF2D8E
:106BF00000F03F00E2D9A378F02D03F03F0343EA11
:106C000080100DD3E37801F0070103F03F0343EA5E
:106C1000801040EA8145B5F5881F3BD0211DD0E7A3
:106C200040EA0135E11CCCE7744533D094F900000B
:106C3000B0F1FF3F04DCC1B2E02928BFF02915D232
:106C4000BBF1000F09D0934506D218F90B0010F1E3
:106C5000400F02DA002101E0FCD1414600290CBFBF
:106C600093468846BCF1000F18D179E0A37801F073
:106C70000701607803F03F03E67800F03F009B01D6
:106C800043EA003006F03F03184440EA8140B0F583
:106C9000881FD5D19346BCF1000F61D0D9F80CA064
:106CA000BBF1100F0BD2BBF1000F0DD0ABF1010007
:106CB0000BF0030C032809D20020424624E0404692
:106CC000594600F091F83AE0002038E02BF0030339
:106CD0000020424692F9026092F9035012F9041B17
:106CE00012F9034C11F1410FC8BF013014F1410FEB
:106CF000C8BF013016F1410FC8BF013015F1410F77
:106D0000C8BF0130043BE5D1BCF1000F17D092F9A8
:106D1000001011F1410FC8BF0130BCF1010F0ED0BE
:106D200092F9011011F1410FC8BF0130BCF1020FFF
:106D300005D092F9021011F1410FC8BF0130824510
:106D40000ED999F82020AAEB0000D11E18BF1146D9
:106D50008A0715D0012910D100210091014610E0C9
:106D6000D9F81C105A46D9F81800CB68414601B032
:106D7000BDE8000FBDE8F040184741080130400869
:106D80000090D9F804404E1CD9E906A5013E06D072
:106D90002A695046214690470028F7D008E0B4F50C
:106DA000881F05D0EB68504641465A46984720B1A7
:106DB000012001B0BDE8000FF0BDDDF80080002625
:106DC000B04508D02A695046214690470136002830
:106DD000F6D0711E00E041460020414538BF012039
:106DE00001B0BDE8000FF0BDF0B503AF2DE900071D
:106DF0000246033020F00300A0EB0209894598BF4A
:106E0000B9F1040F0BD931B1481E01F0030C03286E
:106E100010D200202BE00020BDE80007F0BDA1EB60
:106E2000090EBEF1040FEED30EF0030C90423CD1DC
:106E300000207CE021F00301002092F9026092F929
:106E4000035012F9044B12F9033C14F1410FC8BF6F
:106E5000013013F1410FC8BF013016F1410FC8BF17
:106E6000013015F1410FC8BF01300439E5D1BCF143
:106E7000000F17D092F9001011F1410FC8BF013077
:106E8000BCF1010F0ED092F9011011F1410FC8BFF2
:106E90000130BCF1020F05D092F9021011F1410F3F
:106EA000C8BF0130BDE80007F0BDD143084409F078
:106EB0000308032802D2002014461DE029F0030530
:106EC0000020144694F9026094F903A014F9043BDD
:106ED00014F9031C13F1410FC8BF013011F1410F28
:106EE000C8BF013016F1410FC8BF01301AF1410F80
:106EF000C8BF0130043DE5D1B8F1000F17D094F9B7
:106F0000001011F1410FC8BF0130B8F1010F0ED0D0
:106F100094F9011011F1410FC8BF0130B8F1020F0F
:106F200005D094F9021011F1410FC8BF013002EBF6
:106F300009034FEA9E080021BCF1000F1AD02EF081
:106F400003021A4492F9006016F1410FC8BF0121F3
:106F5000BCF1010F0ED092F9016016F1410FC8BFCC
:106F60000131BCF1020F05D092F9022012F1410F5C
:106F7000C8BF013108440FE03FFA8AF23FFA9AF69F
:106F80003244A8EB0E080CEB8E031EF0030102EB5B
:106F9000024200EB12403ED1B8F1000F3FF482AF45
:106FA000B8F1C00FC64628BF4FF0C00E1EF0FC025D
:106FB0009C464FF0000A03EB8209DDD06346002BAC
:106FC0001FBFD3E90065D3E90212F443E4091FBFF0
:106FD00044EA961424F0FE345444EE431FBFF609ED
:106FE00046EA951525F0FE352C441FBFCD43ED092B
:106FF00045EA911121F0FE311FBF2144D443E40939
:1070000044EA92121FBF22F0FE3202EB010A103353
:107010004B45D4D1B0E7BCF1000F22D0D9F8002005
:1070200001296FEA02034FEAD31343EA921222F0D6
:10703000FE3317D0D9F8042002296FEA02064FEA7E
:10704000D61646EA921222F0FE3213440AD0D9F83C
:107050000810CA43D20942EA911121F0FE310B44D3
:1070600000E000233FFA83F13FFA93F2114401EB71
:10707000014100EB1140BDE80007F0BDD0E9002060
:10708000C368104618470B46D0E900121846FFF7B0
:1070900078BD70460421084203D1EFF3088000F068
:1070A00004B8EFF3098000F000B881B00090FFE76A
:0470B000FEE7D4D44F
:1070B4002F55736572732F61646D696E2F726570DD
:1070C4006F732F626C696E6B792D627574746F6E59
:1070D4002D64656D6F2F6E72662D68616C2D636F04
:1070E4006D6D6F6E2F7372632F6770696F2E72737D
:1070F400B470020040000000E30200000100000040
:1071040063616C6C656420604F7074696F6E3A3AA9
:10711400756E77726170282960206F6E206120601F
:107124004E6F6E65602076616C756563616C6C652D
:10713400642060526573756C743A3A756E77726147
:1071440070282960206F6E20616E20604572726025
:107154002076616C75650000236702000000000062
:1071640001000000C16A020000626C696E6B792F35
:107174007372632F6D61696E2E7273006D710200FC
:1071840012000000140000002B0000006D710200CA
:10719400120000001B0000001D0000006D710200C1
:1071A400120000001C0000001C0000006D710200B1
:1071B400120000001E0000001B000000C96A02004B
:1071C4000000000001000000CB6A02003A20000029
:1071D400C071020000000000D07102000200000033
:040000032000610177
:00000001FF
