:020000022000DC
:10600000B826042001610200EB730200517F0200F8
:10601000EB730200EB730200EB7302000000000060
:10602000000000000000000000000000EB73020010
:10603000EB73020000000000EB730200EB73020040
:10604000EB730200EB730200EB730200EB730200D0
:10605000EB730200EB730200EB730200EB730200C0
:10606000EB730200EB730200EB730200EB730200B0
:10607000EB730200EB730200EB730200EB730200A0
:10608000EB730200EB730200EB730200EB73020090
:10609000EB730200EB730200EB730200EB73020080
:1060A000EB730200EB730200EB730200EB73020070
:1060B000EB730200EB730200000000000000000020
:1060C000EB730200EB730200EB730200EB73020050
:1060D000EB730200EB730200EB730200EB73020040
:1060E000EB730200EB730200EB7302000000000090
:1060F00000000000EB73020000000000EB730200E0
:106100000024E443A64601F072F9A6460E480F4962
:106110000022814201D004C0FBE70D480D490E4A20
:10612000814202D008CA08C0FAE70C484FF4700157
:10613000026842EA01020260BFF34F8FBFF36F8F24
:1061400000B500F0A3FB00DE003400200434002082
:106150000034002000340020C083020088ED00E0FD
:1061600080B56F4682B000F003F8FFE702B080BD53
:1061700080B56F4682B0684600F003F8FFE702B0D2
:1061800080BD80B56F46A0B00490059000F0E3F9A3
:10619000FFE704981C901F904BF20000C4F201002E
:1061A0001D901E9000F092FA0390FFE7039800F50F
:1061B000A260029009900420089008981190109015
:1061C0001098079007A80690069800F032F801464C
:1061D0000298096815901691179001F013F9FFE7DE
:1061E000049818901B904BF20000C4F20100199023
:1061F0001A9000F06BFA0190FFE7019800F5A1609A
:1062000000900D9000200C900C980F900E900E981E
:106210000B900BA80A900A9800F030F801460098FD
:10622000096812901391149001F0ECF8FFE720B088
:1062300080BD80B56F468EB005900690089007909F
:1062400007980390FFE703980990042007F80D0CC6
:1062500009990B910968019101F093F802460198A0
:1062600009990C9162F30300086009980290FFE716
:1062700002980D90FFE702980EB080BD80B56F4682
:1062800092B0059006900A90099009980390FFE754
:1062900003990891032007F8290C17F8290C0B9192
:1062A00007F8150C00F06BFA03990D9107F80D0C27
:1062B0000D990F910968019101F063F80246019868
:1062C0000D99109162F3010008600D980290FFE7AC
:1062D00002981190FFE7029812B080BD80B56F461A
:1062E000BCB0069107900A900B9138903B904BF20E
:1062F0000000C4F2010039903A9000F0E7F90890EC
:10630000FFE7089800F5A0700C90299000212A91D1
:106310002B9001F077F8FFE70798349037904BF215
:106320000000C4F201003590369000F0CFF90590DE
:10633000FFE70698059901F5A8610491099009986D
:10634000189119900021179117991B911A911A9978
:10635000169116A91591159900F055F80146049863
:10636000096820902191229001F04CF8FFE70798EE
:10637000309033904BF20000C4F201003190329023
:1063800000F0A4F90390FFE703980C3002901090FE
:1063900000200F900F981D901C901C980E900EA836
:1063A0000D900D9800F065F8014602980968269056
:1063B0002791289001F026F8FFE707982C902F905E
:1063C0004BF20000C4F201002D902E9000F07EF9F7
:1063D0000190FFE7019814900020139013981F90EC
:1063E0001E901E98129012A81190119800F030F88B
:1063F00001460198096823902491259001F002F844
:10640000FFE73CB080BD80B56F468EB0029004902F
:10641000059106910891079107980390FFE702986C
:1064200000F0DBFF0190FFE70198039909910A90C2
:1064300009990B9100F0D1FF09990C910860099816
:106440000090FFE700980D90FFE700980EB080BD28
:1064500088B00146009102910391012004900591BA
:1064600006900860FFE700980790FFE7009808B0E3
:10647000704788B001460091029103910120049079
:10648000059106900860FFE700980790FFE70098E5
:1064900008B0704780B56F4690B003900B900E9097
:1064A0004BF20000C4F201000C900D9000F00EF9C8
:1064B0000190FFE7019800F5A070069009900A90FE
:1064C00000F096FF059005980890079007980290B5
:1064D000FFE702A80F90FFE702A80490029800903F
:1064E000FFE70098B0FA80F0400910B080BD80B599
:1064F0006F4690B002900C900F904BF20000C4F2E7
:1065000001000D900E9000F0E1F80190FFE7019876
:1065100000F5A07000900690002005900598089066
:1065200007900798049004A80390039800F00BF8D4
:1065300001460098096809900A910B9000F062FFEB
:10654000FFE710B080BD84B0009002900390FFE799
:10655000009804B0704780B56F4690B002900C90E0
:106560000F904BF20000C4F201000D900E9000F06D
:10657000ADF80190FFE7019800F5007000900690DB
:10658000002005900598089007900798049004A8AB
:106590000390039800F00BF80146009809680990F1
:1065A0000A910B9000F02EFFFFE710B080BD80B580
:1065B0006F46A0B008900E9010900F900F98069024
:1065C000FFE706990C91012007F8510C17F8510CC0
:1065D000179107F81D0C00F0C2F80699199107F8F9
:1065E000150C19991B910968049100F0A3F8024653
:1065F000049819991D9162F300000860199805909C
:10660000FFE705980D901290119011980390FFE705
:1066100003990A91012007F8590C17F8590C1391A6
:1066200007F82D0C00F08BF80399159107F8250C4D
:1066300015991C91096821F48071019100F07AF894
:106640000146019801F0010215991E9140EA0220CD
:10665000086015980290FFE702981F90FFE70298E4
:1066600020B080BD86B0019002910390049108444F
:10667000059005980090FFE7009806B0704783B03A
:10668000009101460098019102900968026800207B
:106690009142B8BF012003B070478DB000910190C6
:1066A00005900691079004A9089100680490049849
:1066B00002900990FFE70298019A00990A900B90C6
:1066C0000C920391039911600DB0704781B0009056
:1066D00001B0704780B56F4684B0039000F062F857
:1066E00001900291FFE70299019804B080BD81B04A
:1066F0000090006801B0704780B56F4682B000928C
:106700008DF804008DF805109DF80410C80710B12D
:10671000FFE709E0FEDE009A47F68070C0F2020053
:106720002B2100F019FFFEDE9DF8050007F8010C93
:1067300002B080BD81B08DF8030001B0704782B017
:106740008DF805008DF807008DF806009DF806000D
:106750000090FFE7009800F0010002B0704782B09F
:106760008DF805008DF807008DF806009DF80600ED
:106770000090FFE7009800F0010002B0704782B07F
:106780008DF805008DF807008DF806009DF80600CD
:106790000090FFE7009802B0704782B0009001912E
:1067A00002B0704780B56F468AB004900890011D12
:1067B000FFF765FF0590FFE70598C00718B9FFE7E9
:1067C0000020069017E00498FFF791FF0390FFE781
:1067D00003980121FFF746FF014602910990FFE768
:1067E00002990498FFF759FF0190FFE7019807907D
:1067F00001200690FFE7069807990AB080BD80B592
:106800006F4684B000900390FFF744FE0190FFE7CD
:106810000198C00720B9FFE70098FFF768FE07E07E
:10682000012007F8050CFFE717F8050C04B080BD40
:10683000002007F8050CF7E780B56F4682B000909E
:106840000191FFF74BFDFFE702B080BD80B56F46B9
:1068500086B0009002900391FFF7EEFFFFE70098EB
:10686000FFF7CDFF07F8110CFFE717F8111CC80759
:1068700010B1FFE707E0FEDE47F6E470C0F2020069
:1068800000F062FB00E0EAE706B080BD80B56F462D
:1068900000F001F8FEDE80B56F4690B000F0C1FC5C
:1068A00004900591FFE70599049800F0010047F670
:1068B000F472C0F20202FFF71FFF07F8250CFFE792
:1068C000FFF74EFCFFE7A7F1250000F044FDFFE7CE
:1068D000622007F8220C6F2007F8210C07F8200C23
:1068E000742007F81F0C0D2007F81E0C0A2007F86B
:1068F0001D0CA7F1250000F01EFDFFE707A844F2DC
:106900004021C0F20F01FFF7A1FFFFE7A7F125002B
:1069100000F021FDFFE700200990FFE70999481CDE
:1069200002460392884207D3FFE703980990A7F134
:10693000250000F000FD0BE048F22000C0F202004C
:1069400048F20402C0F202021C2100F005FEFEDE45
:10695000A7F1250000F0FFFCFFE700200A900320CC
:106960000B900A980B99FFF718FF01900291FFE72F
:10697000029801990C910D90FFE70CA8FFF7AAFE71
:106980000F910E90FFE70E9810B1FFE708E0FEDED2
:1069900007A844F24021C0F20F01FFF757FFBDE7FF
:1069A000A7F1250000F0C7FCFFE707A848F2A061A7
:1069B000C0F20101FFF74AFFFFE7A7F1250000F051
:1069C000CAFCFFE707A848F2A061C0F20101FFF787
:1069D0003DFFD2E780B56F4682B0019000F069FCC0
:1069E00007F8050CFFE7781F00F0A5FCFFE7FEE7BE
:1069F00080B56F4682B000F0AEFB0190FFE70198D2
:106A000000F0010002B080BD80B56F4684B00390F5
:106A100043F20040C2F200000078C00718B9FFE757
:106A200000F00DF807E0002007F8090CFFE717F861
:106A3000090C04B080BD012007F8090CF7E743F208
:106A40000041C2F2000101200870704780B56F4616
:106A500090B00390039800F046FA0290FFE7029886
:106A600000F20C51019103A80590059809910A9034
:106A70000021089108990C910B910B99079107A996
:106A80000691069900F00BF80146019809680D90EF
:106A90000E910F9000F0B6FCFFE710B080BD80B5FE
:106AA0006F468AB00191039004910398006800F04A
:106AB00074FC0290FFE7029800F01F020121914050
:106AC000009110F0E00F08D1FFE7009801990591BF
:106AD00006900791089008600BE048F29000C0F221
:106AE000020048F27C02C0F20202232100F034FDD1
:106AF000FEDE01980990FFE701980AB080BD80B5DD
:106B00006F4690B00390039800F0EDF90290FFE714
:106B1000029800F5A161019103A8059005980991DB
:106B20000A900021089108990C910B910B990791FB
:106B300007A90691069900F00BF80146019809682B
:106B40000D900E910F9000F05DFCFFE710B080BD3E
:106B500080B56F468AB00191039004910398006854
:106B600000F01BFC0290FFE7029800F01F020121D9
:106B70009140009110F0E00F08D1FFE700980199D3
:106B8000059106900791089008600BE048F290008C
:106B9000C0F2020048F2B402C0F20202232100F067
:106BA000DBFCFEDE01980990FFE701980AB080BD8A
:106BB00080B56F468CB007F8270C07F8261C17F82D
:106BC000270C07F8250C17F8261CC80710B1FFE79B
:106BD00005E0FEDEA7F12500FFF738FF11E0A7F181
:106BE0002500FFF78CFFFFE748F2C400C0F2020067
:106BF00000F0AAF9FFE7A7F1270000F01EF90190C5
:106C000006E048F2D400C0F2020000F09DF9F2E77D
:106C10000198069002200590059808900790079823
:106C2000049004A80390039800F00DF80146019821
:106C3000096809900A910B9000F0E4FBFFE717F850
:106C4000250C0CB080BD80B56F46C6B00A900D9083
:106C5000189020901F901F980B90FFE70B990F91B1
:106C6000012007F8DD0C17F8DD0C2B9107F8650CF7
:106C700000F0C4F90B992D9107F85D0C2D993E9108
:106C80000968099100F07BF9024609982D99439112
:106C900062F300000860FFE70A981B901E901D90A9
:106CA0001D980890FFE708991191002007F8D50C6E
:106CB00017F8D50C279107F8750C00F073F90899AF
:106CC000299107F86D0C29993F91096821F002017B
:106CD000079100F054F90146079801F00102299943
:106CE000449140EA42000860FFE70A981990249016
:106CF000239023980690FFE706991591002007F846
:106D0000C50C17F8C50C339107F8450C00F05AF97B
:106D10000699359107F83D0C35993C91096821F0A9
:106D20000C01059100F02DFB0146059801F00302CE
:106D30003599419140EA82000860FFE70A981A906D
:106D40002290219021980490FFE70499139100204C
:106D500007F8CD0C17F8CD0C2F9107F8550C00F063
:106D60003FF90499319107F84D0C31993D9109682B
:106D700021F4E061039100F004FB0146039801F067
:106D800007023199429140EA02200860FFE70A9821
:106D90001C902690259025980290FFE70299179164
:106DA000002007F8BD0C17F8BD0C379107F8350C1B
:106DB00000F0EAF80299399107F82D0C39993B91C6
:106DC000096821F44031019100F0DBFA0146019895
:106DD00001F003023999409140EA02400860FFE760
:106DE0000A984590FFE70A9846B080BD82B00A46EF
:106DF00000928DF804008DF807109DF80410C80764
:106E000010B1FFE704E0FEDE00208DF8060003E08D
:106E100020208DF80600FFE700989DF80610084333
:106E20008DF805009DF8050002B0704781B0009014
:106E3000007800F01F0001B0704780B56F4686B043
:106E40000390059000F032F80490FFE70398FFF7F5
:106E5000EDFF0290FFE70298C0B2014601911F28A2
:106E600008D8FFE70498019900EB810000F5E06085
:106E700006B080BD019848F2E402C0F2020220216F
:106E800000F081FBFEDE82B00190007880060028D1
:106E900004D4FFE700208DF8030003E001208DF803
:106EA0000300FFE79DF8030002B0704780B56F460E
:106EB00084B00390FFF7E7FF07F8050CFFE717F82A
:106EC000051CC80710B1FFE704E0FEDE4FF0A0404C
:106ED000019005E040F20030C5F200000190FFE7AC
:106EE000019804B080BD80B56F4684B0039000F077
:106EF0005BFA07F8050CFFE717F8051CC80710B187
:106F0000FFE704E0FEDE4FF0A040019005E040F214
:106F10000030C5F200000190FFE7019804B080BD89
:106F200080B56F4684B0012007F8050C17F8050CF2
:106F30000E21FFF75BFF0190FFE7019804B080BDD1
:106F400081B0009001B0704780B56F4686B0029066
:106F5000012010B9FFE702E0FEDE06B080BD029816
:106F60006946086048F2F400C0F2020048F22013BB
:106F7000C0F202032B2104AA00F03BFBFEDE81B02D
:106F80008DF8030001B0704782B08DF805008DF8D0
:106F900007008DF806009DF806000090FFE70098B6
:106FA00002B0704782B08DF805008DF807008DF8AB
:106FB00006009DF806000090FFE7009800F0010031
:106FC00002B0704782B08DF805008DF807008DF88B
:106FD00006009DF806000090FFE7009802B0704799
:106FE00082B08DF805008DF807008DF806009DF839
:106FF00006000090FFE7009802B0704782B08DF85D
:1070000005008DF807008DF806009DF80600009039
:10701000FFE7009800F0010002B0704782B08DF8E1
:1070200002009DF80210C80710B1FFE704E0FEDE81
:1070300001208DF8030003E000208DF80300FFE736
:107040009DF8030002B0704782B08DF802009DF8F1
:107050000210C80710B1FFE704E0FEDE01208DF842
:10706000030003E000208DF80300FFE79DF8030014
:1070700002B0704784B000900191007802900978C6
:107080000391401AB0FA80F0400904B0704782B012
:1070900000208DF800009DF800009DF8011002B05E
:1070A000704780B56F4682B000F082F80190FFE72C
:1070B000019800F0010002B080BD80B56F4684B039
:1070C000039043F20140C2F200000078C00718B9F3
:1070D000FFE700F00DF807E0002007F8090CFFE7D4
:1070E00017F8090C04B080BD012007F8090CF7E778
:1070F00043F20141C2F2000101200870704780B5DF
:107100006F4684B000F089F9014601910390FFE7D2
:107110000198C00720B9FFE7002007F8050C03E03D
:10712000012007F8050CFFE717F8050C04B080BD37
:1071300080B56F4682B007F8010C48F23011C0F2FA
:107140000201781EFFF796FF0090FFE7009800F01D
:10715000010002B080BD80B56F4686B0FFF7CFFF5B
:107160000146029107F8020CFFE700F054F8FFE730
:1071700000F056F9FFE704A803900398FFF744FCDA
:107180000146019107F8010CFFE7029800F00100A9
:10719000FFF7CEFF0090FFE70098C00728B9FFE790
:1071A000019800F0010006B080BD00F02EF8F7E76E
:1071B00080B56F4686B0FFF7A2FF0146029107F83F
:1071C000020CFFE700F027F8FFE700F029F9FFE7DE
:1071D00004A803900398FFF770FF0146019107F898
:1071E000010CFFE7029800F00100FFF7A1FF0090FB
:1071F000FFE70098C00728B9FFE7019800F00100F9
:1072000006B080BD00F001F8F7E780B56F4600F0EA
:1072100002F9FFE780BD80B56F4600F0FAF8FFE79E
:1072200080BD80B56F4688B0FFF73BFF0290FFE757
:10723000029800F00100FFF707FF07F8120CFFE7C4
:1072400017F8121CC80710B1FFE704E0FEDEFFF7D5
:10725000CFFB01900CE0FFF71AFF8DF80D108DF8B1
:107260000C00FFE79DF80C009DF80D1008B080BDE4
:10727000019800F00100FFF7D1FE07F8110CFFE7BD
:1072800017F8111CC80710B1FFE704E0FEDE00F09C
:1072900020F8009006E0FFF7FAFE8DF80D108DF84B
:1072A0000C00DFE700988DF80D0001208DF80C0030
:1072B000D8E780B56F4682B0FFF71AFFFFE7FFF708
:1072C000BEFBFFE700F005F80190FFE7019802B070
:1072D00080BD80B56F4688B000F079F8FFE700F018
:1072E00079F8FFE7FFF71CFE0290FFE7029800F035
:1072F0000DF80190FFE7019807F8110C17F8110C31
:1073000007F8120C17F8120C08B080BD80B56F4654
:1073100082B007F8010C012107F8021C17F8021CC3
:10732000FFF746FC0090FFE7009807F8030C17F8FA
:10733000030C02B080BD80B56F4682B00190FFF7AC
:10734000DEFBFFE748F26410C0F20200FFF7FCFD2D
:10735000FFE702B080BD80B56F4682B00190FFF7B5
:1073600075FBFFE748F27410C0F20200FFF7ECFD76
:10737000FFE702B080BD81B08DF80300C0B201B05C
:10738000704780B56F4682B007F8010CFFF7F3FF36
:107390000090FFE7009802B080BD81B000900078B7
:1073A00000F01F0001B0704782B0019000788006A5
:1073B000002804D4FFE700208DF8030003E001203B
:1073C0008DF80300FFE79DF8030002B0704781B01D
:1073D00001B0704781B001B0704783B00090019058
:1073E0000290FFE7009803B07047FFE7FEE77047A1
:1073F00083B001900068029002980090FFE7009827
:1074000003B0704782B0009001910160FFE702B0C5
:10741000704772B6704762B67047EFF310807047DE
:10742000704782B000900191FEDE80B56F4694B047
:107430000293039204910590B868069010911192FE
:107440001293139082420AD3FFE703990698421CD5
:107450000020914288BF012007F8310C03E0012091
:1074600007F8310CFFE717F8310CC007B8B9FFE790
:1074700006980599029A039BDDF810C04FF0000EA4
:10748000CDF838E0C1F800C04B60DDF838C00F9B84
:10749000C1F808C0CB600A61486114B080BD69467C
:1074A0000020086048F29011C0F2020148F29813DF
:1074B000C0F2020308A80122FFF7B7FFFFE748F276
:1074C000E411C0F2020108A800F07DF8FEDED4D479
:1074D00080B56F468AB007F8190C17F8190C02909E
:1074E0000299DFE801F0041415161700FEDE694664
:1074F0000020086048F22821C0F2020148F29813E7
:10750000C0F2020304A80122FFF78FFF05E002E0AA
:1075100001E000E0FFE70AB080BD48F28021C0F240
:10752000020104A800F04FF8FEDE80B56F4682B07D
:107530000190FFE7042007F8050C17F8050CFFF78A
:10754000C7FFF7E770474CF27C204CF27341CFF64F
:107550009530CEF22651704780B56F4688B094467C
:1075600048F29022C0F202020023CDE906016846EB
:10757000049201226146019206AA059302930092A9
:1075800000F021F8FEDE80B56F468CB0CDE9000139
:1075900008A90220069100210790CDE9030148F2D5
:1075A000C420C0F202006946029047F64360C0F270
:1075B0000200CDE9090111460B9001A8089002A82C
:1075C00000F001F8FEDE80B56F4686B0CDE903011C
:1075D00048F2D420C0F202000122029048F290202A
:1075E000C0F202008DF81420019001A8FFF79DFF62
:1075F000FEDE80B56F468EB08DE80F000AA902202E
:10760000089100210990CDE9050148F2E820C0F277
:107610000200D7F808C0049047F63B70C0F20200A1
:107620000D9002A80C9047F64570C0F2020061462A
:107630000B9068460A9004A8FFF7C5FFFEDEF0B580
:1076400003AF2DE9000F87B0FD681E461346824642
:10765000F9B1DAF800804FF02B0B18F0010008BFE9
:107660004FF4881B4419D7F808905FEA48701AD580
:10767000102E4AD2002E00F07F80701E06F0030C00
:1076800003287BD200201A46BCF1000F40F0A280F4
:10769000B8E0DAF800806C1C4FF02D0BD7F808909A
:1076A0005FEA4870E4D40023DAF80800002800F00C
:1076B000AF80CDE905B6DAF80CB0A34517D95FEA7B
:1076C0000870CDF810902FD49AF82000ABEB04018D
:1076D0009B46032808BF01208207039500F0B9806C
:1076E000012840F0B8804FF000090846B7E006983E
:1076F0002E46DAE9064500902946059A204600F014
:1077000000F978B34FF0010827E018463146CDF86C
:107710001880C846A1461C4600F049FA23464C464C
:10772000C146DDF818806DE0DAF804004FF001087A
:107730009AF820102E46029030200191CAF80400D9
:107740000698DAE906958AF8208029460090059A7D
:10775000484600F0D6F800286FD0404607B0BDE894
:10776000000FF0BDEB6820464946324607B0BDE841
:10777000000FBDE8F0401847002043E01A4626F00D
:1077800003030294AE46CDF814B00020934606964B
:1077900092F9025092F9031012F9044B12F9036C9A
:1077A00014F1410FC8BF013016F1410FC8BF0130BD
:1077B00015F1410FC8BF013011F1410FC8BF0130B1
:1077C000043BE5D15B46DDE905B6029C7546BCF19C
:1077D000000F17D092F9001011F1410FC8BF01300E
:1077E000BCF1010F0ED092F9011011F1410FC8BF89
:1077F0000130BCF1020F05D092F9021011F1410FD6
:10780000C8BF01300444DAF8080000287FF451AF03
:10781000A846DAE9064529465A460096204600F071
:1078200070F800284DD1EB6820464946424607B023
:10783000BDE8000FBDE8F0401847ABEB0400441C66
:10784000013C38D02A694846302190470028F7D0BB
:1078500037E0894603E0480801314FEA5109DAF878
:107860000450441CDAE90686013C06D032694046E1
:10787000294690470028F7D023E0B5F5881F20D08F
:107880000698314600904046059A5B4600F039F86C
:10789000B8B9F3684046DDE90321984788B9002468
:1078A000A14522D03269404629469047013400283C
:1078B000F6D0601E1AE0EB684846049932469847B5
:1078C00030B14FF00108404607B0BDE8000FF0BDF1
:1078D00001984FF000088AF820000298CAF80400C6
:1078E000404607B0BDE8000FF0BD48464FF0000825
:1078F000484538BF4FF00108404607B0BDE8000FCB
:10790000F0BDF0B503AF4DF8048DD7F808801C46E4
:107910000D460646B2F5881F08D02B693046114641
:10792000984718B101205DF8048BF0BD44B1EB68B5
:107930003046214642465DF8048BBDE8F0401847CA
:1079400000205DF8048BF0BDF0B503AF2DE9000F0A
:1079500081B08846D0F808C001698146BCF1010FAA
:1079600018BF01290AD1012977D1D9F8140008EBF1
:10797000020E4FF0000B4146461C0CE0D9E906010F
:10798000D6E040EA8115A11CABEB0400B5F5881FD9
:1079900000EB010B61D0013E0C4628D074455CD051
:1079A000214611F9010BB0F1FF3FC5B2ECDC607864
:1079B00005F01F01DF2D00F03F00E2D9A378F02D84
:1079C00003F03F0343EA80100DD3E37801F0070191
:1079D00003F03F0343EA801040EA8145B5F5881F74
:1079E0003BD0211DD0E740EA0135E11CCCE77445CE
:1079F00033D094F90000B0F1FF3F04DCC1B2E029BC
:107A000028BFF02915D2BBF1000F09D0934506D24B
:107A100018F90B0010F1400F02DA002101E0FCD14F
:107A2000414600290CBF93468846BCF1000F18D18F
:107A300079E0A37801F00701607803F03F03E6786E
:107A400000F03F009B0143EA003006F03F0318447A
:107A500040EA8140B0F5881FD5D19346BCF1000FB4
:107A600061D0D9F80CA0BBF1100F0BD2BBF1000F05
:107A70000DD0ABF101000BF0030C032809D200205C
:107A8000424624E04046594600F091F83AE0002092
:107A900038E02BF003030020424692F9026092F98D
:107AA000035012F9041B12F9034C11F1410FC8BF26
:107AB000013014F1410FC8BF013016F1410FC8BFAA
:107AC000013015F1410FC8BF0130043BE5D1BCF1D5
:107AD000000F17D092F9001011F1410FC8BF01300B
:107AE000BCF1010F0ED092F9011011F1410FC8BF86
:107AF0000130BCF1020F05D092F9021011F1410FD3
:107B0000C8BF013082450ED999F82020AAEB0000A9
:107B1000D11E18BF11468A0715D0012910D10021A6
:107B20000091014610E0D9F81C105A46D9F8180007
:107B3000CB68414601B0BDE8000FBDE8F0401847F2
:107B40004108013040080090D9F804404E1CD9E9A2
:107B500006A5013E06D02A695046214690470028D6
:107B6000F7D008E0B4F5881F05D0EB6850464146D1
:107B70005A46984720B1012001B0BDE8000FF0BD82
:107B8000DDF800800026B04508D02A69504621461D
:107B9000904701360028F6D0711E00E041460020D3
:107BA000414538BF012001B0BDE8000FF0BDF0B580
:107BB00003AF2DE900070246033020F00300A0EBDD
:107BC0000209894598BFB9F1040F0BD931B1481E9C
:107BD00001F0030C032810D200202BE00020BDE8A8
:107BE0000007F0BDA1EB090EBEF1040FEED30EF0BD
:107BF000030C90423CD100207CE021F003010020E6
:107C000092F9026092F9035012F9044B12F9033C05
:107C100014F1410FC8BF013013F1410FC8BF01304B
:107C200016F1410FC8BF013015F1410FC8BF013037
:107C30000439E5D1BCF1000F17D092F9001011F111
:107C4000410FC8BF0130BCF1010F0ED092F90110F5
:107C500011F1410FC8BF0130BCF1020F05D092F9FC
:107C6000021011F1410FC8BF0130BDE80007F0BD9F
:107C7000D143084409F00308032802D20020144627
:107C80001DE029F003050020144694F9026094F9E0
:107C900003A014F9043B14F9031C13F1410FC8BFEE
:107CA000013011F1410FC8BF013016F1410FC8BFBB
:107CB00001301AF1410FC8BF0130043DE5D1B8F1E0
:107CC000000F17D094F9001011F1410FC8BF013017
:107CD000B8F1010F0ED094F9011011F1410FC8BF96
:107CE0000130B8F1020F05D094F9021011F1410FE3
:107CF000C8BF013002EB09034FEA9E080021BCF126
:107D0000000F1AD02EF003021A4492F9006016F107
:107D1000410FC8BF0121BCF1010F0ED092F90160E3
:107D200016F1410FC8BF0131BCF1020F05D092F925
:107D3000022012F1410FC8BF013108440FE03FFAA1
:107D40008AF23FFA9AF63244A8EB0E080CEB8E0347
:107D50001EF0030102EB024200EB12403ED1B8F1EB
:107D6000000F3FF482AFB8F1C00FC64628BF4FF0F6
:107D7000C00E1EF0FC029C464FF0000A03EB820985
:107D8000DDD06346002B1FBFD3E90065D3E90212A3
:107D9000F443E4091FBF44EA961424F0FE3454442B
:107DA000EE431FBFF60946EA951525F0FE352C4433
:107DB0001FBFCD43ED0945EA911121F0FE311FBFF0
:107DC0002144D443E40944EA92121FBF22F0FE3258
:107DD00002EB010A10334B45D4D1B0E7BCF1000FE0
:107DE00022D0D9F8002001296FEA02034FEAD31309
:107DF00043EA921222F0FE3317D0D9F80420022968
:107E00006FEA02064FEAD61646EA921222F0FE32D6
:107E100013440AD0D9F80810CA43D20942EA911192
:107E200021F0FE310B4400E000233FFA83F13FFADA
:107E300093F2114401EB014100EB1140BDE8000752
:107E4000F0BDF0B503AF2DE9000F8DB0046848F226
:107E5000F82042F2107E0D467445C0F202003DD378
:107E600041F259784EF2FF03A7F1430B0021CDF206
:107E7000B71841F27B494FF0640AC0F2F5530295FE
:107E8000A4FB08250BEB010C04399C424FEA553248
:107E900002FB1E451446AEB24FEA960606FB09F6F3
:107EA0004FEA564606FB1A5530F81660ACF82360C8
:107EB000ADB230F81550ACF82550E1D8029D01F173
:107EC00027031446632C0CD821460A291BD330F80B
:107ED00011009A1EA7F1430188521AE02723632C50
:107EE000F2D9A1B241F27B428908023B514364229C
:107EF000A7F14306490C01FB124292B230F812205E
:107F0000F2520A29E3D25A1E01F13000A7F14301CF
:107F10008854A7F14301C2F12700114448F290228E
:107F2000CDE90010C0F20202284601210023FFF72C
:107F300086FB0DB0BDE8000FF0BDD0E90020C3689E
:107F4000104618470B46D0E900121846FFF7FCBC54
:107F500070460421084203D1EFF3088000F004B812
:107F6000EFF3098000F000B880B56F4682B0019051
:107F7000FEF730FDFEDE81B00090FFE7FEE7D4D4CF
:107F800063616C6C656420604F7074696F6E3A3A1F
:107F9000756E77726170282960206F6E2061206095
:107FA0004E6F6E65602076616C75656164616672A6
:107FB0007569742D636972637569742D706C61796C
:107FC00067726F756E642D626C7565667275697423
:107FD0002F6578616D706C65732F626C696E6B795B
:107FE0002E727300AB7F02003800000045000000D5
:107FF0001A000000AB7F0200380000000E000000F5
:108000001F000000AB7F02003800000024000000C9
:108010000900000000000000000000000000000057
:10802000617474656D707420746F2061646420776E
:10803000697468206F766572666C6F772F5573650B
:1080400072732F61646D696E2F7265706F732F622A
:108050006C696E6B792D627574746F6E2D64656DCD
:108060006F2F6E72662D68616C2D636F6D6D6F6E14
:108070002F7372632F6770696F2E72733C800200DA
:10808000400000007D010000320000000000000000
:10809000617474656D707420746F207368696674A0
:1080A000206C6566742077697468206F76657266E7
:1080B0006C6F77003C8002004000000073010000FC
:1080C000320000003C80020040000000F30000008D
:1080D0002B0000003C80020040000000F200000085
:1080E000290000003C80020040000000B8000000B1
:1080F0000A00000063616C6C6564206052657375F2
:108100006C743A3A756E77726170282960206F6ED0
:1081100020616E2060457272602076616C7565002A
:10812000416F020000000000010000002374020003
:108130000061646166727569742D63697263756943
:10814000742D706C617967726F756E642D626C75D9
:108150006566727569742F7372632F6C69622E7213
:108160007300000031810200300000007F01000038
:108170001B0000003181020030000000830100007C
:108180001A000000696E76616C6964206172677321
:10819000848102000C0000002F72757374632F3805
:1081A0003937653337353533626261386234323797
:1081B0003531633637363538393637383839643102
:1081C000316563643132302F6C6962726172792F6C
:1081D000636F72652F7372632F666D742F6D6F649A
:1081E0002E727300988102004B0000008C01000089
:1081F0000D0000007468657265206973206E6F2041
:1082000073756368207468696E67206173206120EC
:1082100072656C6178656420636F6D70696C6572FE
:108220002066656E63650000F48102003200000084
:108230002F72757374632F3839376533373535339B
:1082400062626138623432373531633637363538F9
:108250003936373838396431316563643132302F1B
:108260006C6962726172792F636F72652F737263CA
:108270002F73796E632F61746F6D69632E72730053
:10828000308202004F0000003F0D00001800000087
:10829000696E646578206F7574206F6620626F75F3
:1082A0006E64733A20746865206C656E2069732073
:1082B000206275742074686520696E646578206931
:1082C000732000009082020020000000B0820200B3
:1082D00012000000457502000000000001000000CF
:1082E000477502003A200000908202000000000062
:1082F000E48202000200000030303031303230338E
:108300003034303530363037303830393130313143
:108310003132313331343135313631373138313929
:108320003230323132323233323432353236323721
:108330003238323933303331333233333334333507
:1083400033363337333833393430343134323433ED
:1083500034343435343634373438343935303531D3
:1083600035323533353435353536353735383539B9
:1083700036303631363236333634363536363637B1
:108380003638363937303731373237333734373597
:10839000373637373738373938303831383238337D
:1083A0003834383538363837383838393930393163
:1083B0003932393339343935393639373938393949
:040000032000610177
:00000001FF
